{
  "_format": "hh-sol-artifact-1",
  "contractName": "WarrantyCard",
  "sourceName": "contracts/WarrantyCard.sol",
  "abi": [
    {
      "inputs": [
        {
          "internalType": "string",
          "name": "nftName",
          "type": "string"
        },
        {
          "internalType": "string",
          "name": "nftShortHand",
          "type": "string"
        }
      ],
      "stateMutability": "nonpayable",
      "type": "constructor"
    },
    {
      "inputs": [],
      "name": "Product_Creator_Unidentified",
      "type": "error"
    },
    {
      "inputs": [],
      "name": "Product_Not_Purchased",
      "type": "error"
    },
    {
      "inputs": [],
      "name": "Product_Owner_Unidentified",
      "type": "error"
    },
    {
      "inputs": [],
      "name": "Product_WarrantyPeriod_Over",
      "type": "error"
    },
    {
      "anonymous": false,
      "inputs": [
        {
          "indexed": true,
          "internalType": "address",
          "name": "owner",
          "type": "address"
        },
        {
          "indexed": true,
          "internalType": "address",
          "name": "approved",
          "type": "address"
        },
        {
          "indexed": true,
          "internalType": "uint256",
          "name": "tokenId",
          "type": "uint256"
        }
      ],
      "name": "Approval",
      "type": "event"
    },
    {
      "anonymous": false,
      "inputs": [
        {
          "indexed": true,
          "internalType": "address",
          "name": "owner",
          "type": "address"
        },
        {
          "indexed": true,
          "internalType": "address",
          "name": "operator",
          "type": "address"
        },
        {
          "indexed": false,
          "internalType": "bool",
          "name": "approved",
          "type": "bool"
        }
      ],
      "name": "ApprovalForAll",
      "type": "event"
    },
    {
      "anonymous": false,
      "inputs": [
        {
          "indexed": true,
          "internalType": "address",
          "name": "from",
          "type": "address"
        },
        {
          "indexed": true,
          "internalType": "address",
          "name": "to",
          "type": "address"
        },
        {
          "indexed": true,
          "internalType": "uint256",
          "name": "tokenId",
          "type": "uint256"
        }
      ],
      "name": "Transfer",
      "type": "event"
    },
    {
      "inputs": [
        {
          "internalType": "address",
          "name": "to",
          "type": "address"
        },
        {
          "internalType": "uint256",
          "name": "tokenId",
          "type": "uint256"
        }
      ],
      "name": "approve",
      "outputs": [],
      "stateMutability": "nonpayable",
      "type": "function"
    },
    {
      "inputs": [
        {
          "internalType": "address",
          "name": "owner",
          "type": "address"
        }
      ],
      "name": "balanceOf",
      "outputs": [
        {
          "internalType": "uint256",
          "name": "",
          "type": "uint256"
        }
      ],
      "stateMutability": "view",
      "type": "function"
    },
    {
      "inputs": [
        {
          "internalType": "uint256",
          "name": "tokenId",
          "type": "uint256"
        }
      ],
      "name": "burn",
      "outputs": [],
      "stateMutability": "nonpayable",
      "type": "function"
    },
    {
      "inputs": [
        {
          "internalType": "bool",
          "name": "hasPurchased",
          "type": "bool"
        },
        {
          "internalType": "uint256",
          "name": "tokenId",
          "type": "uint256"
        }
      ],
      "name": "changeWarrantyPeriod",
      "outputs": [],
      "stateMutability": "nonpayable",
      "type": "function"
    },
    {
      "inputs": [
        {
          "internalType": "uint256",
          "name": "tokenId",
          "type": "uint256"
        }
      ],
      "name": "getApproved",
      "outputs": [
        {
          "internalType": "address",
          "name": "",
          "type": "address"
        }
      ],
      "stateMutability": "view",
      "type": "function"
    },
    {
      "inputs": [],
      "name": "getBlockTimeStamp",
      "outputs": [
        {
          "internalType": "uint256",
          "name": "",
          "type": "uint256"
        }
      ],
      "stateMutability": "view",
      "type": "function"
    },
    {
      "inputs": [
        {
          "internalType": "uint256",
          "name": "tokenId",
          "type": "uint256"
        }
      ],
      "name": "getCurrentWarrantyDuration",
      "outputs": [
        {
          "internalType": "uint256",
          "name": "",
          "type": "uint256"
        }
      ],
      "stateMutability": "view",
      "type": "function"
    },
    {
      "inputs": [
        {
          "internalType": "uint256",
          "name": "tokenId",
          "type": "uint256"
        }
      ],
      "name": "getEndTime",
      "outputs": [
        {
          "internalType": "uint256",
          "name": "",
          "type": "uint256"
        }
      ],
      "stateMutability": "view",
      "type": "function"
    },
    {
      "inputs": [
        {
          "internalType": "uint256",
          "name": "tokenId",
          "type": "uint256"
        }
      ],
      "name": "getStartTime",
      "outputs": [
        {
          "internalType": "uint256",
          "name": "",
          "type": "uint256"
        }
      ],
      "stateMutability": "view",
      "type": "function"
    },
    {
      "inputs": [
        {
          "internalType": "address",
          "name": "owner",
          "type": "address"
        },
        {
          "internalType": "address",
          "name": "operator",
          "type": "address"
        }
      ],
      "name": "isApprovedForAll",
      "outputs": [
        {
          "internalType": "bool",
          "name": "",
          "type": "bool"
        }
      ],
      "stateMutability": "view",
      "type": "function"
    },
    {
      "inputs": [],
      "name": "name",
      "outputs": [
        {
          "internalType": "string",
          "name": "",
          "type": "string"
        }
      ],
      "stateMutability": "view",
      "type": "function"
    },
    {
      "inputs": [
        {
          "internalType": "uint256",
          "name": "tokenId",
          "type": "uint256"
        }
      ],
      "name": "ownerOf",
      "outputs": [
        {
          "internalType": "address",
          "name": "",
          "type": "address"
        }
      ],
      "stateMutability": "view",
      "type": "function"
    },
    {
      "inputs": [
        {
          "internalType": "uint256",
          "name": "tokenId",
          "type": "uint256"
        }
      ],
      "name": "redeemWarranty",
      "outputs": [],
      "stateMutability": "nonpayable",
      "type": "function"
    },
    {
      "inputs": [
        {
          "internalType": "address",
          "name": "to",
          "type": "address"
        },
        {
          "internalType": "string",
          "name": "uri",
          "type": "string"
        }
      ],
      "name": "safeMint",
      "outputs": [],
      "stateMutability": "nonpayable",
      "type": "function"
    },
    {
      "inputs": [
        {
          "internalType": "address",
          "name": "from",
          "type": "address"
        },
        {
          "internalType": "address",
          "name": "to",
          "type": "address"
        },
        {
          "internalType": "uint256",
          "name": "tokenId",
          "type": "uint256"
        }
      ],
      "name": "safeTransferFrom",
      "outputs": [],
      "stateMutability": "nonpayable",
      "type": "function"
    },
    {
      "inputs": [
        {
          "internalType": "address",
          "name": "from",
          "type": "address"
        },
        {
          "internalType": "address",
          "name": "to",
          "type": "address"
        },
        {
          "internalType": "uint256",
          "name": "tokenId",
          "type": "uint256"
        },
        {
          "internalType": "bytes",
          "name": "data",
          "type": "bytes"
        }
      ],
      "name": "safeTransferFrom",
      "outputs": [],
      "stateMutability": "nonpayable",
      "type": "function"
    },
    {
      "inputs": [
        {
          "internalType": "address",
          "name": "operator",
          "type": "address"
        },
        {
          "internalType": "bool",
          "name": "approved",
          "type": "bool"
        }
      ],
      "name": "setApprovalForAll",
      "outputs": [],
      "stateMutability": "nonpayable",
      "type": "function"
    },
    {
      "inputs": [
        {
          "internalType": "uint256",
          "name": "tokenId",
          "type": "uint256"
        },
        {
          "internalType": "uint256",
          "name": "duration",
          "type": "uint256"
        }
      ],
      "name": "setDurationForTokenId",
      "outputs": [],
      "stateMutability": "nonpayable",
      "type": "function"
    },
    {
      "inputs": [
        {
          "internalType": "bytes4",
          "name": "interfaceId",
          "type": "bytes4"
        }
      ],
      "name": "supportsInterface",
      "outputs": [
        {
          "internalType": "bool",
          "name": "",
          "type": "bool"
        }
      ],
      "stateMutability": "view",
      "type": "function"
    },
    {
      "inputs": [],
      "name": "symbol",
      "outputs": [
        {
          "internalType": "string",
          "name": "",
          "type": "string"
        }
      ],
      "stateMutability": "view",
      "type": "function"
    },
    {
      "inputs": [
        {
          "internalType": "uint256",
          "name": "tokenId",
          "type": "uint256"
        }
      ],
      "name": "tokenURI",
      "outputs": [
        {
          "internalType": "string",
          "name": "",
          "type": "string"
        }
      ],
      "stateMutability": "view",
      "type": "function"
    },
    {
      "inputs": [
        {
          "internalType": "address",
          "name": "from",
          "type": "address"
        },
        {
          "internalType": "address",
          "name": "to",
          "type": "address"
        },
        {
          "internalType": "uint256",
          "name": "tokenId",
          "type": "uint256"
        }
      ],
      "name": "transferFrom",
      "outputs": [],
      "stateMutability": "nonpayable",
      "type": "function"
    }
  ],
  "bytecode": "0x6080604052600880546001600160a01b03191690553480156200002157600080fd5b5060405162001e1d38038062001e1d8339810160408190526200004491620001ea565b8151829082906200005d90600090602085019062000091565b5080516200007390600190602084019062000091565b5050600880546001600160a01b0319163317905550620002a4915050565b8280546200009f9062000251565b90600052602060002090601f016020900481019282620000c357600085556200010e565b82601f10620000de57805160ff19168380011785556200010e565b828001600101855582156200010e579182015b828111156200010e578251825591602001919060010190620000f1565b506200011c92915062000120565b5090565b5b808211156200011c576000815560010162000121565b600082601f83011262000148578081fd5b81516001600160401b03808211156200016557620001656200028e565b604051601f8301601f19908116603f011681019082821181831017156200019057620001906200028e565b81604052838152602092508683858801011115620001ac578485fd5b8491505b83821015620001cf5785820183015181830184015290820190620001b0565b83821115620001e057848385830101525b9695505050505050565b60008060408385031215620001fd578182fd5b82516001600160401b038082111562000214578384fd5b620002228683870162000137565b9350602085015191508082111562000238578283fd5b50620002478582860162000137565b9150509250929050565b600181811c908216806200026657607f821691505b602082108114156200028857634e487b7160e01b600052602260045260246000fd5b50919050565b634e487b7160e01b600052604160045260246000fd5b611b6980620002b46000396000f3fe608060405234801561001057600080fd5b50600436106101425760003560e01c80639067b677116100b8578063b88d4fde1161007c578063b88d4fde146102bb578063bc2be1be146102ce578063c87b56dd146102f1578063ca49a54314610304578063d204c45e1461030a578063e985e9c51461031d57600080fd5b80639067b6771461025757806395d89b411461027a578063a22cb46514610282578063a379d44114610295578063a91f468c146102a857600080fd5b806331af64181161010a57806331af6418146101d757806333c73497146101f857806342842e0e1461020b57806342966c681461021e5780636352211e1461023157806370a082311461024457600080fd5b806301ffc9a71461014757806306fdde031461016f578063081812fc14610184578063095ea7b3146101af57806323b872dd146101c4575b600080fd5b61015a61015536600461184c565b610359565b60405190151581526020015b60405180910390f35b6101776103ab565b6040516101669190611955565b610197610192366004611884565b61043d565b6040516001600160a01b039091168152602001610166565b6101c26101bd366004611808565b610464565b005b6101c26101d23660046116cc565b61057f565b6101ea6101e5366004611884565b6105b1565b604051908152602001610166565b6101c261020636600461189c565b610613565b6101c26102193660046116cc565b6106c8565b6101c261022c366004611884565b6106e3565b61019761023f366004611884565b610714565b6101ea610252366004611680565b610774565b6101ea610265366004611884565b60009081526009602052604090206002015490565b6101776107fa565b6101c2610290366004611780565b610809565b6101c26102a3366004611884565b610818565b6101c26102b6366004611831565b6108d5565b6101c26102c9366004611707565b6109d5565b6101ea6102dc366004611884565b60009081526009602052604090206001015490565b6101776102ff366004611884565b610a0d565b426101ea565b6101c26103183660046117a9565b610a18565b61015a61032b36600461169a565b6001600160a01b03918216600090815260056020908152604080832093909416825291909152205460ff1690565b60006001600160e01b031982166380ac58cd60e01b148061038a57506001600160e01b03198216635b5e139f60e01b145b806103a557506301ffc9a760e01b6001600160e01b03198316145b92915050565b6060600080546103ba90611a77565b80601f01602080910402602001604051908101604052809291908181526020018280546103e690611a77565b80156104335780601f1061040857610100808354040283529160200191610433565b820191906000526020600020905b81548152906001019060200180831161041657829003601f168201915b5050505050905090565b600061044882610a74565b506000908152600460205260409020546001600160a01b031690565b600061046f82610714565b9050806001600160a01b0316836001600160a01b031614156104e25760405162461bcd60e51b815260206004820152602160248201527f4552433732313a20617070726f76616c20746f2063757272656e74206f776e656044820152603960f91b60648201526084015b60405180910390fd5b336001600160a01b03821614806104fe57506104fe813361032b565b6105705760405162461bcd60e51b815260206004820152603e60248201527f4552433732313a20617070726f76652063616c6c6572206973206e6f7420746f60448201527f6b656e206f776e6572206e6f7220617070726f76656420666f7220616c6c000060648201526084016104d9565b61057a8383610ad3565b505050565b61058a335b82610b41565b6105a65760405162461bcd60e51b81526004016104d9906119ba565b61057a838383610bc0565b6000818152600960205260408120600201548290156105fb5760008181526009602052604090206002015442106105fb5760405163380050cd60e01b815260040160405180910390fd5b60008381526009602052604090205491505b50919050565b60008281526009602052604090206002015482901561065d57600081815260096020526040902060020154421061065d5760405163380050cd60e01b815260040160405180910390fd5b60085433906001600160a01b0316811461068a57604051633c4358bf60e21b815260040160405180910390fd5b505060408051606081018252918252600060208084018281528484018381529583526009909152919020915182555160018201559051600290910155565b61057a838383604051806020016040528060008152506109d5565b6106ec33610584565b6107085760405162461bcd60e51b81526004016104d9906119ba565b61071181610d5c565b50565b6000818152600260205260408120546001600160a01b0316806103a55760405162461bcd60e51b8152602060048201526018602482015277115490cdcc8c4e881a5b9d985b1a59081d1bdad95b88125160421b60448201526064016104d9565b60006001600160a01b0382166107de5760405162461bcd60e51b815260206004820152602960248201527f4552433732313a2061646472657373207a65726f206973206e6f7420612076616044820152683634b21037bbb732b960b91b60648201526084016104d9565b506001600160a01b031660009081526003602052604090205490565b6060600180546103ba90611a77565b610814338383610d65565b5050565b6000818152600960205260409020600201548190156108625760008181526009602052604090206002015442106108625760405163380050cd60e01b815260040160405180910390fd5b3382600061086f82610714565b9050806001600160a01b0316836001600160a01b0316146108a357604051633337f25560e01b815260040160405180910390fd5b6000858152600960205260408120805460029091018054919290916108c9908490611a34565b90915550505050505050565b338160006108e282610714565b9050806001600160a01b0316836001600160a01b03161461091657604051633337f25560e01b815260040160405180910390fd5b6000848152600960205260409020600201548490156109605760008181526009602052604090206002015442106109605760405163380050cd60e01b815260040160405180910390fd5b8561097e576040516357cc96b560e01b815260040160405180910390fd5b6000858152600960205260409020426001820155600201546109cd57600085815260096020526040902080546001909101546109ba9190611a08565b6000868152600960205260409020600201555b505050505050565b6109df3383610b41565b6109fb5760405162461bcd60e51b81526004016104d9906119ba565b610a0784848484610e34565b50505050565b60606103a582610e67565b60085433906001600160a01b03168114610a4557604051633c4358bf60e21b815260040160405180910390fd5b6000610a5060075490565b9050610a60600780546001019055565b610a6a8482610f70565b610a078184610f8a565b6000818152600260205260409020546001600160a01b03166107115760405162461bcd60e51b8152602060048201526018602482015277115490cdcc8c4e881a5b9d985b1a59081d1bdad95b88125160421b60448201526064016104d9565b600081815260046020526040902080546001600160a01b0319166001600160a01b0384169081179091558190610b0882610714565b6001600160a01b03167f8c5be1e5ebec7d5bd14f71427d1e84f3dd0314c0f7b2291e5b200ac8c7c3b92560405160405180910390a45050565b600080610b4d83610714565b9050806001600160a01b0316846001600160a01b03161480610b9457506001600160a01b0380821660009081526005602090815260408083209388168352929052205460ff165b80610bb85750836001600160a01b0316610bad8461043d565b6001600160a01b0316145b949350505050565b826001600160a01b0316610bd382610714565b6001600160a01b031614610c375760405162461bcd60e51b815260206004820152602560248201527f4552433732313a207472616e736665722066726f6d20696e636f72726563742060448201526437bbb732b960d91b60648201526084016104d9565b6001600160a01b038216610c995760405162461bcd60e51b8152602060048201526024808201527f4552433732313a207472616e7366657220746f20746865207a65726f206164646044820152637265737360e01b60648201526084016104d9565b610ca4600082610ad3565b6001600160a01b0383166000908152600360205260408120805460019290610ccd908490611a34565b90915550506001600160a01b0382166000908152600360205260408120805460019290610cfb908490611a08565b909155505060008181526002602052604080822080546001600160a01b0319166001600160a01b0386811691821790925591518493918716917fddf252ad1be2c89b69c2b068fc378daa952ba7f163c4a11628f55a4df523b3ef91a4505050565b61071181611024565b816001600160a01b0316836001600160a01b03161415610dc75760405162461bcd60e51b815260206004820152601960248201527f4552433732313a20617070726f766520746f2063616c6c65720000000000000060448201526064016104d9565b6001600160a01b03838116600081815260056020908152604080832094871680845294825291829020805460ff191686151590811790915591519182527f17307eab39ab6107e8899845ad3d59bd9653f200f220920489ca2b5937696c31910160405180910390a3505050565b610e3f848484610bc0565b610e4b84848484611064565b610a075760405162461bcd60e51b81526004016104d990611968565b6060610e7282610a74565b60008281526006602052604081208054610e8b90611a77565b80601f0160208091040260200160405190810160405280929190818152602001828054610eb790611a77565b8015610f045780601f10610ed957610100808354040283529160200191610f04565b820191906000526020600020905b815481529060010190602001808311610ee757829003601f168201915b505050505090506000610f2260408051602081019091526000815290565b9050805160001415610f35575092915050565b815115610f67578082604051602001610f4f9291906118e9565b60405160208183030381529060405292505050919050565b610bb884611171565b6108148282604051806020016040528060008152506111e5565b6000828152600260205260409020546001600160a01b03166110055760405162461bcd60e51b815260206004820152602e60248201527f45524337323155524953746f726167653a2055524920736574206f66206e6f6e60448201526d32bc34b9ba32b73a103a37b5b2b760911b60648201526084016104d9565b6000828152600660209081526040909120825161057a9284019061150f565b61102d81611218565b6000818152600660205260409020805461104690611a77565b15905061071157600081815260066020526040812061071191611593565b60006001600160a01b0384163b1561116657604051630a85bd0160e11b81526001600160a01b0385169063150b7a02906110a8903390899088908890600401611918565b602060405180830381600087803b1580156110c257600080fd5b505af19250505080156110f2575060408051601f3d908101601f191682019092526110ef91810190611868565b60015b61114c573d808015611120576040519150601f19603f3d011682016040523d82523d6000602084013e611125565b606091505b5080516111445760405162461bcd60e51b81526004016104d990611968565b805181602001fd5b6001600160e01b031916630a85bd0160e11b149050610bb8565b506001949350505050565b606061117c82610a74565b600061119360408051602081019091526000815290565b905060008151116111b357604051806020016040528060008152506111de565b806111bd846112b3565b6040516020016111ce9291906118e9565b6040516020818303038152906040525b9392505050565b6111ef83836113cd565b6111fc6000848484611064565b61057a5760405162461bcd60e51b81526004016104d990611968565b600061122382610714565b9050611230600083610ad3565b6001600160a01b0381166000908152600360205260408120805460019290611259908490611a34565b909155505060008281526002602052604080822080546001600160a01b0319169055518391906001600160a01b038416907fddf252ad1be2c89b69c2b068fc378daa952ba7f163c4a11628f55a4df523b3ef908390a45050565b6060816112d75750506040805180820190915260018152600360fc1b602082015290565b8160005b811561130157806112eb81611aac565b91506112fa9050600a83611a20565b91506112db565b60008167ffffffffffffffff81111561132a57634e487b7160e01b600052604160045260246000fd5b6040519080825280601f01601f191660200182016040528015611354576020820181803683370190505b5090505b8415610bb857611369600183611a34565b9150611376600a86611ac7565b611381906030611a08565b60f81b8183815181106113a457634e487b7160e01b600052603260045260246000fd5b60200101906001600160f81b031916908160001a9053506113c6600a86611a20565b9450611358565b6001600160a01b0382166114235760405162461bcd60e51b815260206004820181905260248201527f4552433732313a206d696e7420746f20746865207a65726f206164647265737360448201526064016104d9565b6000818152600260205260409020546001600160a01b0316156114885760405162461bcd60e51b815260206004820152601c60248201527f4552433732313a20746f6b656e20616c7265616479206d696e7465640000000060448201526064016104d9565b6001600160a01b03821660009081526003602052604081208054600192906114b1908490611a08565b909155505060008181526002602052604080822080546001600160a01b0319166001600160a01b03861690811790915590518392907fddf252ad1be2c89b69c2b068fc378daa952ba7f163c4a11628f55a4df523b3ef908290a45050565b82805461151b90611a77565b90600052602060002090601f01602090048101928261153d5760008555611583565b82601f1061155657805160ff1916838001178555611583565b82800160010185558215611583579182015b82811115611583578251825591602001919060010190611568565b5061158f9291506115c9565b5090565b50805461159f90611a77565b6000825580601f106115af575050565b601f01602090049060005260206000209081019061071191905b5b8082111561158f57600081556001016115ca565b600067ffffffffffffffff808411156115f9576115f9611b07565b604051601f8501601f19908116603f0116810190828211818310171561162157611621611b07565b8160405280935085815286868601111561163a57600080fd5b858560208301376000602087830101525050509392505050565b80356001600160a01b038116811461166b57600080fd5b919050565b8035801515811461166b57600080fd5b600060208284031215611691578081fd5b6111de82611654565b600080604083850312156116ac578081fd5b6116b583611654565b91506116c360208401611654565b90509250929050565b6000806000606084860312156116e0578081fd5b6116e984611654565b92506116f760208501611654565b9150604084013590509250925092565b6000806000806080858703121561171c578081fd5b61172585611654565b935061173360208601611654565b925060408501359150606085013567ffffffffffffffff811115611755578182fd5b8501601f81018713611765578182fd5b611774878235602084016115de565b91505092959194509250565b60008060408385031215611792578182fd5b61179b83611654565b91506116c360208401611670565b600080604083850312156117bb578182fd5b6117c483611654565b9150602083013567ffffffffffffffff8111156117df578182fd5b8301601f810185136117ef578182fd5b6117fe858235602084016115de565b9150509250929050565b6000806040838503121561181a578182fd5b61182383611654565b946020939093013593505050565b60008060408385031215611843578182fd5b61182383611670565b60006020828403121561185d578081fd5b81356111de81611b1d565b600060208284031215611879578081fd5b81516111de81611b1d565b600060208284031215611895578081fd5b5035919050565b600080604083850312156118ae578182fd5b50508035926020909101359150565b600081518084526118d5816020860160208601611a4b565b601f01601f19169290920160200192915050565b600083516118fb818460208801611a4b565b83519083019061190f818360208801611a4b565b01949350505050565b6001600160a01b038581168252841660208201526040810183905260806060820181905260009061194b908301846118bd565b9695505050505050565b6020815260006111de60208301846118bd565b60208082526032908201527f4552433732313a207472616e7366657220746f206e6f6e20455243373231526560408201527131b2b4bb32b91034b6b83632b6b2b73a32b960711b606082015260800190565b6020808252602e908201527f4552433732313a2063616c6c6572206973206e6f7420746f6b656e206f776e6560408201526d1c881b9bdc88185c1c1c9bdd995960921b606082015260800190565b60008219821115611a1b57611a1b611adb565b500190565b600082611a2f57611a2f611af1565b500490565b600082821015611a4657611a46611adb565b500390565b60005b83811015611a66578181015183820152602001611a4e565b83811115610a075750506000910152565b600181811c90821680611a8b57607f821691505b6020821081141561060d57634e487b7160e01b600052602260045260246000fd5b6000600019821415611ac057611ac0611adb565b5060010190565b600082611ad657611ad6611af1565b500690565b634e487b7160e01b600052601160045260246000fd5b634e487b7160e01b600052601260045260246000fd5b634e487b7160e01b600052604160045260246000fd5b6001600160e01b03198116811461071157600080fdfea26469706673582212203603358f20fda4ff6eca60509cf3b62f1b92414cede6ae9aeefd03101dc7679e64736f6c63430008040033",
  "linkReferences": {},
  "deployedLinkReferences": {}
}